:020000040800F2
:100000000050002029070008710700087107000848
:100010007107000871070008710700080000000060
:100020000000000000000000000000007107000850
:100030007107000800000000710700089D02000819
:1000400071070008710700087107000871070008B0
:1000500071070008710700087107000871070008A0
:100060007107000871070008710700087107000890
:100070007107000871070008710700087107000880
:100080007107000871070008710700087107000870
:100090007107000871070008710700087107000860
:1000A0007107000871070008710700087107000850
:1000B0007107000871070008710700087107000840
:1000C0007107000871070008710700087107000830
:1000D0007107000871070008710700087107000820
:1000E0007107000871070008710700080000000090
:1000F0000000000000000000000000000000000000
:0C01000000000000000000005FF808F1A3
:10010C000348044B834202D0034B03B1184770479A
:10011C000C0000200C000020000000000548064BDD
:10012C001B1AD90F01EBA301491002D0034B03B1E9
:10013C00184770470C0000200C0000200000000045
:10014C0010B5064C237843B9FFF7DAFF044B13B113
:10015C000448AFF300800123237010BD0C00002075
:10016C00000000008009000808B5054B1BB10549CB
:10017C000548AFF30080BDE80840FFF7CFBF00BFD4
:10018C0000000000100000208009000870B5002657
:10019C000C4D0D4B5B1B9C10A64209D1002600F0A8
:1001AC00E9FB0A4D0A4B5B1B9C10A64205D170BDA6
:1001BC0055F8043B98470136EEE755F8043B984751
:1001CC000136F2E798090008980900089809000818
:1001DC009C09000880B586B000AF07F10803002227
:1001EC001A605A609A60DA60124B9B69114A43F0AC
:1001FC00100393610F4B9B6903F010037B607B68CA
:10020C0001224FF400510C4800F058FA4FF40053FF
:10021C00BB600123FB6000233B6102237B6107F180
:10022C0008031946044800F0C5F800BF1837BD464E
:10023C0080BD00BF001002400010014080B500AF2F
:10024C00064B1B68064AA2FB03239B09184600F0C9
:10025C0068FB042000F072FB00BF80BD080000208A
:10026C00D34D621080B500AF00F018F8FFF7E6FF31
:10027C00FFF7B0FF4FF40051044800F037FA4FF489
:10028C00FA7000F073F800BFF4E700BF00100140F3
:10029C0080B500AF00F04EF800BF80BD80B500AF58
:1002AC00084B1B68074A43F010031360032000F04F
:1002BC0011FB0F2000F00EF800F006F80023184692
:1002CC0080BD00BF0020024080B400AF00BFBD461F
:1002DC0080BC704780B582B000AF7860124B1A6852
:1002EC00124B1B7819464FF47A73B3FBF1F3B2FB44
:1002FC00F3F3184600F015FB0346002B01D0012345
:10030C000EE07B680F2B0AD8002279684FF0FF3083
:10031C0000F0EBFA064A7B681360002300E001232F
:10032C0018460837BD4680BD080000200400002098
:10033C000000002080B400AF054B1B781A46054B1B
:10034C001B681344034A136000BFBD4680BC704752
:10035C00040000202800002080B400AF024B1B6872
:10036C001846BD4680BC70472800002080B584B07C
:10037C0000AF7860FFF7F0FFB8607B68FB60FB684C
:10038C00B3F1FF3F05D00A4B1B781A46FB681344A8
:10039C00FB6000BFFFF7E0FF0246BB68D31AFA68A8
:1003AC009A42F7D800BF00BF1037BD4680BD00BFD2
:1003BC000400002080B48BB000AF7860396000235B
:1003CC007B6200233B6269E101227B6A02FA03F340
:1003DC00FB613B681B68FA691340BB61BA69FB6936
:1003EC009A4240F058813B685B689A4A93425ED0CF
:1003FC00984A934275D8984A934258D0964A934259
:10040C006FD8964A934252D0944A934269D8944AF0
:10041C0093424CD0924A934263D8924A934246D02C
:10042C00904A93425DD8122B2AD8122B59D801A28C
:10043C0052F823F0BB04000895040008A704000838
:10044C00E9040008EF040008EF040008EF040008BA
:10045C00EF040008EF040008EF040008EF040008A4
:10046C00EF040008EF040008EF040008EF04000894
:10047C00EF040008EF0400089D040008B104000814
:10048C00794A934213D02CE03B68DB683B6229E04D
:10049C003B68DB6804333B6224E03B68DB68083371
:1004AC003B621FE03B68DB680C333B621AE03B6845
:1004BC009B68002B02D104233B6213E03B689B68D2
:1004CC00012B05D108233B627B68FA691A6109E0AC
:1004DC0008233B627B68FA695A6103E000233B62A4
:1004EC0000E000BFBB69FF2B01D87B6801E07B6893
:1004FC0004337B61BB69FF2B02D87B6A9B0002E053
:10050C007B6A083B9B003B617B691A680F213B6946
:10051C0001FA03F3DB431A40396A3B6901FA03F32E
:10052C001A437B691A603B685B6803F08053002BAD
:10053C0000F0B1804D4B9B694C4A43F00103936131
:10054C004A4B9B6903F00103BB60BB68484A7B6A5A
:10055C009B08023352F82330FB607B6A03F00303E1
:10056C009B000F2202FA03F3DB43FA681340FB6093
:10057C007B68404A934213D07B683F4A93420DD02C
:10058C007B683E4A934207D07B683D4A934201D137
:10059C00032306E0042304E0022302E0012300E02D
:1005AC0000237A6A02F0030292009340FA68134324
:1005BC00FB602F497B6A9B080233FA6841F82320C1
:1005CC003B685B6803F48033002B06D02D4B1A6814
:1005DC002C49BB6913430B6006E02A4B1A68BB69B4
:1005EC00DB43284913400B603B685B6803F4003322
:1005FC00002B06D0234B5A682249BB6913434B602E
:10060C0006E0204B5A68BB69DB431E4913404B6024
:10061C003B685B6803F48013002B06D0194B9A6877
:10062C001849BB6913438B6006E0164B9A68BB698B
:10063C00DB43144913408B603B685B6803F4001385
:10064C00002B21D00F4BDA680E49BB691343CB60EA
:10065C0021E000BF00003210000031100000221019
:10066C0000002110000012100000111000100240B8
:10067C000000014000080140000C01400010014046
:10068C0000140140000401400B4BDA68BB69DB43EA
:10069C0009491340CB607B6A01337B623B681A6863
:1006AC007B6A22FA03F3002B7FF48EAE00BF00BFEF
:1006BC002C37BD4680BC70470004014080B483B029
:1006CC0000AF78600B467B8013467B707B78002BE9
:1006DC0003D07A887B681A6103E07B881A047B68F4
:1006EC001A6100BF0C37BD4680BC704780B483B024
:1006FC0000AF78600B467B807B68DA687B881340A0
:10070C00002B03D07A887B685A6102E07A887B6878
:10071C001A6100BF0C37BD4680BC704700F023F84F
:10072C000B480C490C4A002302E0D458C450043343
:10073C00C4188C42F9D3094A094C002301E0136018
:10074C000432A242FBD3FFF721FDFFF78BFD70476C
:10075C00000000200C000020A00900080C00002064
:10076C002C000020FEE780B400AF00BFBD4680BC6B
:10077C007047000080B485B000AF78607B6803F0F0
:10078C000703FB600C4BDB68BB60BA684FF6FF03DA
:10079C001340BB60FB681A02BB68134343F0BF6392
:1007AC0043F40033BB60044ABB68D36000BF14370A
:1007BC00BD4680BC704700BF00ED00E080B400AFC8
:1007CC00044BDB681B0A03F007031846BD4680BCCC
:1007DC00704700BF00ED00E080B483B000AF03466B
:1007EC003960FB7197F90730002B0ADB3B68DAB2F2
:1007FC000C4997F907301201D2B20B4483F800234D
:10080C000AE03B68DAB20849FB7903F00F03043BBA
:10081C001201D2B20B441A7600BF0C37BD4680BC15
:10082C00704700BF00E100E000ED00E080B489B04B
:10083C0000AFF860B9607A60FB6803F00703FB61F6
:10084C00FB69C3F10703042B28BF0423BB61FB69BD
:10085C000433062B02D9FB69033B00E000237B61C8
:10086C004FF0FF32BB6902FA03F3DA43BB681A405C
:10087C007B699A404FF0FF317B6901FA03F3D9434E
:10088C007B680B40134318462437BD4680BC704729
:10089C0080B582B000AF78607B68013BB3F1807F9C
:1008AC0001D301230FE00A4A7B68013B53600F21FF
:1008BC004FF0FF30FFF790FF054B00229A60044B7E
:1008CC0007221A60002318460837BD4680BD00BFBA
:1008DC0010E000E080B582B000AF78607868FFF778
:1008EC0049FF00BF0837BD4680BD80B586B000AF5C
:1008FC000346B9607A60FB7300237B61FFF75EFFF0
:10090C0078617A68B9687869FFF790FF024697F9C1
:10091C000F3011461846FFF75FFF00BF1837BD4672
:10092C0080BD80B582B000AF78607868FFF7B0FF0B
:10093C00034618460837BD4680BD000080B483B01E
:10094C0000AF78607B68042B06D1094B1B68084A02
:10095C0043F00403136005E0054B1B68044A23F0C5
:10096C000403136000BF0C37BD4680BC704700BF4A
:10097C0010E000E0F8B500BFF8BC08BC9E4670471C
:0C098C00F8B500BFF8BC08BC9E467047E0
:0409980075010008DD
:04099C004D01000801
:0C09A000100000000100000000127A00AE
:0400000508000729BF
:00000001FF
