:020000040800F2
:1000000000500020C9080008110900081109000863
:10001000110900081109000811090008000000007A
:1000200000000000000000000000000011090008AE
:10003000110900080000000011090008D50300089C
:100040001109000811090008110900081109000828
:100050001109000811090008110900081109000818
:100060001109000811090008110900081109000808
:1000700011090008110900081109000811090008F8
:1000800011090008110900081109000811090008E8
:1000900011090008110900081109000811090008D8
:1000A00011090008110900081109000811090008C8
:1000B00011090008110900081109000811090008B8
:1000C00011090008110900081109000811090008A8
:1000D0001109000811090008110900081109000898
:1000E00011090008110900081109000800000000AA
:1000F0000000000000000000000000000000000000
:0C01000000000000000000005FF808F1A3
:10010C000348044B834202D0034B03B1184770479A
:10011C001C0000201C000020000000000548064BBD
:10012C001B1AD90F01EBA301491002D0034B03B1E9
:10013C00184770471C0000201C0000200000000025
:10014C0010B5064C237843B9FFF7DAFF044B13B113
:10015C000448AFF300800123237010BD1C00002065
:10016C0000000000E80A000808B5054B1BB1054962
:10017C000548AFF30080BDE80840FFF7CFBF00BFD4
:10018C000000000020000020E80A000870B50026DE
:10019C000C4D0D4B5B1B9C10A64209D1002600F0A8
:1001AC009DFC0A4D0A4B5B1B9C10A64205D170BDF1
:1001BC0055F8043B98470136EEE755F8043B984751
:1001CC000136F2E7000B0008000B0008000B0008DA
:1001DC00040B000880B582B000AF0023FB7154E023
:1001EC000023BB7111E0BB792C4A32F81310BA7999
:1001FC00FB799A4214BF01230023DBB21A4628482C
:10020C0000F02BFBBB790133BB71BB79012BEAD915
:10021C00012000F063F900237B7130E07B79214AE7
:10022C0032F8133019461E4800F000FB0346002B31
:10023C0022D1142000F052F97B791A4A32F813308B
:10024C001946174800F0F2FA0346002B14D100BFF0
:10025C007B79144A32F813301946114800F0E6FA4B
:10026C000346002BF4D0FB795B00DAB27B791344A4
:10027C00DBB20133DBB20CE07B7901337B717B7930
:10028C00012BCBD9FB790133FB71FB79012BA7D95E
:10029C00002318460837BD4680BD00BF080000206B
:1002AC00000C01400C00002080B586B000AF07F1B7
:1002BC00080300221A605A609A60DA603C4B9B6912
:1002CC003B4A43F004039361394B9B6903F00403ED
:1002DC007B607B68364B9B69354A43F0080393611E
:1002EC00334B9B6903F008033B603B68314B1A8826
:1002FC00304B5B8813439AB22E4B9B8813439AB2B4
:10030C002C4BDB8813439BB2002219462A4800F081
:10031C00A4FA284B1A88274B5B8813439AB2254BB7
:10032C009B8813439AB2234BDB8813439BB2BB606D
:10033C000123FB6000233B6102237B6107F108036F
:10034C0019461D4800F0EEF81C4B1A881B4B5B88B5
:10035C0013439BB201221946194800F07EFA174B41
:10036C001A88164B5B8813439BB2BB600123FB605E
:10037C0000233B6102237B6107F1080319461048F7
:10038C0000F0D0F80F4B1A880E4B5B8813439BB2CE
:10039C00BB600023FB6001233B6107F10803194696
:1003AC00074800F0BFF800BF1837BD4680BD00BF3E
:1003BC00001002400000002000080140080000204E
:1003CC00000C01400C00002080B500AF00F06AF872
:1003DC0000BF80BD80B582B000AF00F017F8FFF70A
:1003EC0063FFFFF7F7FE0346FB71FB79002BF8D098
:1003FC00FB79013B034A32F813301946024800F0EE
:10040C0044FAEEE7000000200008014080B500AF80
:10041C00084B1B68074A43F010031360032000F0DD
:10042C0029FB0F2000F00EF800F006F80023184608
:10043C0080BD00BF0020024080B400AF00BFBD46AD
:10044C0080BC704780B582B000AF7860124B1A68E0
:10045C00124B1B7819464FF47A73B3FBF1F3B2FBD2
:10046C00F3F3184600F02DFB0346002B01D00123BB
:10047C000EE07B680F2B0AD8002279684FF0FF3012
:10048C0000F003FB064A7B681360002300E00123A5
:10049C0018460837BD4680BD180000201400002007
:1004AC001000002080B400AF054B1B781A46054B9A
:1004BC001B681344034A136000BFBD4680BC7047E1
:1004CC00140000203800002080B400AF024B1B68E1
:1004DC001846BD4680BC70473800002080B584B0FB
:1004EC0000AF7860FFF7F0FFB8607B68FB60FB68DB
:1004FC00B3F1FF3F05D00A4B1B781A46FB68134437
:10050C00FB6000BFFFF7E0FF0246BB68D31AFA6836
:10051C009A42F7D800BF00BF1037BD4680BD00BF60
:10052C001400002080B48BB000AF786039600023D9
:10053C007B6200233B6269E101227B6A02FA03F3CE
:10054C00FB613B681B68FA691340BB61BA69FB69C4
:10055C009A4240F058813B685B689A4A93425ED05D
:10056C00984A934275D8984A934258D0964A9342E7
:10057C006FD8964A934252D0944A934269D8944A7F
:10058C0093424CD0924A934263D8924A934246D0BB
:10059C00904A93425DD8122B2AD8122B59D801A21B
:1005AC0052F823F02B060008050600081706000871
:1005BC00590600085F0600085F0600085F06000881
:1005CC005F0600085F0600085F0600085F0600086B
:1005DC005F0600085F0600085F0600085F0600085B
:1005EC005F0600085F0600080D06000821060008DB
:1005FC00794A934213D02CE03B68DB683B6229E0DC
:10060C003B68DB6804333B6224E03B68DB680833FF
:10061C003B621FE03B68DB680C333B621AE03B68D3
:10062C009B68002B02D104233B6213E03B689B6860
:10063C00012B05D108233B627B68FA691A6109E03A
:10064C0008233B627B68FA695A6103E000233B6232
:10065C0000E000BFBB69FF2B01D87B6801E07B6821
:10066C0004337B61BB69FF2B02D87B6A9B0002E0E1
:10067C007B6A083B9B003B617B691A680F213B69D5
:10068C0001FA03F3DB431A40396A3B6901FA03F3BD
:10069C001A437B691A603B685B6803F08053002B3C
:1006AC0000F0B1804D4B9B694C4A43F001039361C0
:1006BC004A4B9B6903F00103BB60BB68484A7B6AE9
:1006CC009B08023352F82330FB607B6A03F0030370
:1006DC009B000F2202FA03F3DB43FA681340FB6022
:1006EC007B68404A934213D07B683F4A93420DD0BB
:1006FC007B683E4A934207D07B683D4A934201D1C6
:10070C00032306E0042304E0022302E0012300E0BB
:10071C0000237A6A02F0030292009340FA681343B2
:10072C00FB602F497B6A9B080233FA6841F823204F
:10073C003B685B6803F48033002B06D02D4B1A68A2
:10074C002C49BB6913430B6006E02A4B1A68BB6942
:10075C00DB43284913400B603B685B6803F40033B0
:10076C00002B06D0234B5A682249BB6913434B60BC
:10077C0006E0204B5A68BB69DB431E4913404B60B3
:10078C003B685B6803F48013002B06D0194B9A6806
:10079C001849BB6913438B6006E0164B9A68BB691A
:1007AC00DB43144913408B603B685B6803F4001314
:1007BC00002B21D00F4BDA680E49BB691343CB6079
:1007CC0021E000BF000032100000311000002210A8
:1007DC000000211000001210000011100010024047
:1007EC000000014000080140000C014000100140D5
:1007FC0000140140000401400B4BDA68BB69DB4379
:10080C0009491340CB607B6A01337B623B681A68F1
:10081C007B6A22FA03F3002B7FF48EAE00BF00BF7D
:10082C002C37BD4680BC70470004014080B485B0B5
:10083C0000AF78600B467B807B689A687B8813409E
:10084C00002B02D00123FB7301E00023FB73FB7B25
:10085C0018461437BD4680BC704780B483B000AFD7
:10086C0078600B467B8013467B707B78002B03D023
:10087C007A887B681A6103E07B881A047B681A61AA
:10088C0000BF0C37BD4680BC704780B483B000AF4E
:10089C0078600B467B807B68DA687B881340002B82
:1008AC0003D07A887B685A6102E07A887B681A6187
:1008BC0000BF0C37BD4680BC7047000000F023F829
:1008CC000B480C490C4A002302E0D458C4500433A2
:1008DC00C4188C42F9D3094A094C002301E0136077
:1008EC000432A242FBD3FFF751FCFFF773FD7047B4
:1008FC00000000201C000020080B00081C00002039
:10090C003C000020FEE780B400AF00BFBD4680BCB9
:10091C007047000080B485B000AF78607B6803F04E
:10092C000703FB600C4BDB68BB60BA684FF6FF0338
:10093C001340BB60FB681A02BB68134343F0BF63F0
:10094C0043F40033BB60044ABB68D36000BF143768
:10095C00BD4680BC704700BF00ED00E080B400AF26
:10096C00044BDB681B0A03F007031846BD4680BC2A
:10097C00704700BF00ED00E080B483B000AF0346C9
:10098C003960FB7197F90730002B0ADB3B68DAB250
:10099C000C4997F907301201D2B20B4483F80023AB
:1009AC000AE03B68DAB20849FB7903F00F03043B19
:1009BC001201D2B20B441A7600BF0C37BD4680BC74
:1009CC00704700BF00E100E000ED00E080B489B0AA
:1009DC0000AFF860B9607A60FB6803F00703FB6155
:1009EC00FB69C3F10703042B28BF0423BB61FB691C
:1009FC000433062B02D9FB69033B00E000237B6127
:100A0C004FF0FF32BB6902FA03F3DA43BB681A40BA
:100A1C007B699A404FF0FF317B6901FA03F3D943AC
:100A2C007B680B40134318462437BD4680BC704787
:100A3C0080B582B000AF78607B68013BB3F1807FFA
:100A4C0001D301230FE00A4A7B68013B53600F215D
:100A5C004FF0FF30FFF790FF054B00229A60044BDC
:100A6C0007221A60002318460837BD4680BD00BF18
:100A7C0010E000E080B582B000AF78607868FFF7D6
:100A8C0049FF00BF0837BD4680BD80B586B000AFBA
:100A9C000346B9607A60FB7300237B61FFF75EFF4E
:100AAC0078617A68B9687869FFF790FF024697F920
:100ABC000F3011461846FFF75FFF00BF1837BD46D1
:100ACC0080BD80B582B000AF78607868FFF7B0FF6A
:100ADC00034618460837BD4680BD0000F8B500BF78
:100AEC00F8BC08BC9E467047F8B500BFF8BC08BC03
:040AFC009E4670475B
:040B00007501000873
:040B04004D01000897
:100B080002000400080010002000400080000001DE
:0C0B1800100000000100000000127A0034
:04000005080008C91E
:00000001FF
